{
  "_format": "hh-sol-artifact-1",
  "contractName": "Verifier_vc_and_disclose",
  "sourceName": "contracts/verifiers/disclose/Verifier_vc_and_disclose.sol",
  "abi": [
    {
      "inputs": [
        {
          "internalType": "uint256[2]",
          "name": "_pA",
          "type": "uint256[2]"
        },
        {
          "internalType": "uint256[2][2]",
          "name": "_pB",
          "type": "uint256[2][2]"
        },
        {
          "internalType": "uint256[2]",
          "name": "_pC",
          "type": "uint256[2]"
        },
        {
          "internalType": "uint256[21]",
          "name": "_pubSignals",
          "type": "uint256[21]"
        }
      ],
      "name": "verifyProof",
      "outputs": [
        {
          "internalType": "bool",
          "name": "",
          "type": "bool"
        }
      ],
      "stateMutability": "view",
      "type": "function"
    }
  ],
  "bytecode": "0x6080604052348015600f57600080fd5b50610c948061001f6000396000f3fe608060405234801561001057600080fd5b506004361061002b5760003560e01c80635debc07e14610030575b600080fd5b61004361003e366004610c20565b610057565b604051901515815260200160405180910390f35b6000610ac7565b7f30644e72e131a029b85045b68181585d2833e84879b9709143e1f593f0000001811061008f576000805260206000f35b50565b600060405183815284602082015285604082015260408160608360076107d05a03fa9150816100c5576000805260206000f35b825160408201526020830151606082015260408360808360066107d05a03fa915050806100f6576000805260206000f35b5050505050565b7f02ef6b708abc701681efc17c9980ea03165ed2f2d9df05cd01db5b426ce2a86985527f05cc816086757359fcbb8272bb34d3f96abab9fdb75201aea44f84bd313aa00960208601526000608086018661019a87357f293b3f8be7971e3ff9883e2946b3e4df5048e89b051b0b49e45778fc5dea440c7f2e4444ce5ed6b32a2651f777e79eee9f074409c002396e8e3da99889359a994584610092565b6101ea60208801357f1fbc37b7db8af29365115850667aefdf17652c31ad54b96e9d80940d441c695d7f284a293577ae285fcf1fc0e006959da73948931bb5f09775a1f3e3ebccdf6c2084610092565b61023a60408801357f1964417177428e925a11e4f5aef3ceb1f9cfb5127d72c2128675e4c3e7d1e9e27f04ce4dbb3c6ad89bc75aa610e015eabb2efb1471099e3ab9beabc48b57221a2484610092565b61028a60608801357f287e437400d0aab75b6a1b52d9c0766d87e3811e4707379cf5d2f6aca2c243a47f0fd2d3755c127748a74563e6d70db5431f6632b44dc8afcbdb3ae4769fc7335b84610092565b6102da60808801357f1e534198add3eb51c726a2c0a4d869c7adfabe7c0ca7622a75242e4611bea7997f0dd76993514354387a6d00befc6c4aa4a88cfec939e3028d5843c7ac29da1d4584610092565b61032a60a08801357f05613bdaac637a7810b733a37448902b4ebd1eafda7bfbe75e6f25b4fbbc8d7b7f2922d41f0ddb90c3257da757ad9abc0246cad695023a3fcf1a6bce9f101fd2eb84610092565b61037a60c08801357f1a8a955a01fc4bbd8ccdbec018b1f90f2c750f5280425a0f66573a498e740f717f2aa09564cea66f9e9379d9d1234752bebb34a2620d1ebfdc6739548281717f3a84610092565b6103ca60e08801357f118ad8ecee941098ebf3ca2e967e65fc12b8fd5dea4c3a28bc63dc0aece196627f15009efdef67bd872bca0625ce676e1cb86a9de0aedba7baf20453012feb5ebb84610092565b61041b6101008801357f25e8d636a0c291dcf9a2f1d456bb3a56ef656f296bf2a282841e4513517df04f7f2cc404f5faac0ef61f479bc902f2d55a0b27e15c6ed0c1d65dcfc6ab2ab8409884610092565b61046c6101208801357f26952a4894b658ff9c99c48e648b9a3119a568e2652db95963b9777708ff18b87f1104f8c92e61cd6de23529f99a2b455f805c79b40ef4330e875158407d451e1f84610092565b6104bd6101408801357f2733a42e0c0775621e148ea6698214479e8058de5948d8c5b4df29228cfcf3f07f22518cbd19529462f264a6739cf746d289aeae5e8d3e158d92f4b8f12413b8c184610092565b61050e6101608801357f0396967db2e592c68b3af387285310f6175da4c2a0feae104c4fb1528486b1757f1b48169f119aefe115e430d0b40d695a6afdfb0dc5bc75da6fb0a19eb595b17784610092565b61055f6101808801357f2bc1e4cf78623dcddd95b9dd4af82b691718fc1749d92894cec15dc90656c1877f23d9fcf721873d191e06472dda5663a71b1adfe6e175d9155d7528511b1c999784610092565b6105b06101a08801357f221a8c7972679ed11aa0293f61804f9f6d2085005a6e61b04d526dcc63b0a7bd7f150ffdbde4b49943d442decaca503b0917c987dd4d3feb74052a631a77e0c2ef84610092565b6106016101c08801357f193bac03ece09100f949ba2b8baf66cec6ae9a744f1eeecccceb5cd5ce920a797f2f4465d0057332a805a501816ac3e0bcf0487456f03dea6531413436b828b00084610092565b6106526101e08801357f299912b9cbf17ab8d1c9a58c3ef83028f094df1f1981666083668942075cb5557f2d29ee148f17215238c90710830343cdebdfa78a1737687ef2d6ed77d7c80d2584610092565b6106a36102008801357f04fbf37a38480bef16a9f8616a31301de7472b984632c5b155aaa9eec1cac2c77f1ffd2f702bea32be4b791914ea52c3b8386df5b40ce600c2f6352218cc72ed8084610092565b6106f46102208801357f0ff8f9e07ccf07c1849fa78bce313d1a9251c5e6d206cec2b451113fb99ed12b7f0eb1ebabc143cb296b0aa2d29b944b0c3727d654c77e833d52e9e209f89fa05584610092565b6107456102408801357f0356bfbfb50a49a966ae3c846b17feaa719331d6a6bdc4ccfd656fd0a23475607f1ecc1a87451aabceea1636825175df88fe40d22c4005b01801cd3f1bfc4b181284610092565b6107966102608801357f2b519c88e3fb6109aeaa2c251b6919072327e89f2c4f8a5978855f7e2163fa027f2ae13cfa66299b54d9d5c31c0e06b737cd331691aa5cc7f12780f2436aafc41984610092565b6107e76102808801357f1e5ab6b3f6525f09dc282f2caa4221fe0175f95dd5b9e8a6e118fe8b6e9a6bf87f0f34814ee217dd5c4032a2a4b19626618fc619dbac1ff369a6f8b4a3b720a36f84610092565b50823581527f30644e72e131a029b85045b68181585d97816a916871ca8d3c208c16d87cfd4760208401357f30644e72e131a029b85045b68181585d97816a916871ca8d3c208c16d87cfd4703066020820152833560408201526020840135606082015260408401356080820152606084013560a08201527f2d4d9aa7e302d9df41749d5507949d05dbea33fbb16c643b22f599a2be6df2e260c08201527f14bedd503c37ceb061d8ec60209fe345ce89830a19230301f076caff004d192660e08201527f0967032fcbf776d1afc985f88877f182d38480a653f2decaa9794cbc3bf3060c6101008201527f0e187847ad4c798374d0d6732bf501847dd68bc0e071241e0213bc7fc13db7ab6101208201527f304cfbd1e08a704a99f5e847d93f8c3caafddec46b7a0d379da69a4d112346a76101408201527f1739c1b1a457a8c7313123d24d2f9192f896b7c63eea05a9d57f06547ad0cec8610160820152600087015161018082015260206000018701516101a08201527f198e9393920d483a7260bfb731fb5d25f1aa493335a9e71297e485b7aef312c26101c08201527f1800deef121f1e76426a00665e5c4479674322d4f75edadd46debd5cd992f6ed6101e08201527f090689d0585ff075ec9e99ad690c3395bc4b313370b38ef355acdadcd122975b6102008201527f12c85ea5db8c6deb4aab71808dcb408fe3d1e7690c43d37b4ce6cc0166fa7daa610220820152843561024082015260208501356102608201527f2e928dda302d39d01d45d28dcb9813177b27687b1dc87d566a42735575d3a40c6102808201527f2bf5f522310eb8a24d2e32b570e1268587e1bdfe8fe0ce807556cd2b6aa7c3a86102a08201527f1f95b51951a8034a0e8b6d2720e6c64bfdc1413dfe16dcc7b0f0977bda6458f36102c08201527f2908dc18354cdc4f06cc65d34ba4df6ac2aa28f6465b244b2cd55706003410696102e08201526020816103008360086107d05a03fa9051169695505050505050565b6040516103808101604052610adf600084013561005e565b610aec602084013561005e565b610af9604084013561005e565b610b06606084013561005e565b610b13608084013561005e565b610b2060a084013561005e565b610b2d60c084013561005e565b610b3a60e084013561005e565b610b4861010084013561005e565b610b5661012084013561005e565b610b6461014084013561005e565b610b7261016084013561005e565b610b8061018084013561005e565b610b8e6101a084013561005e565b610b9c6101c084013561005e565b610baa6101e084013561005e565b610bb861020084013561005e565b610bc661022084013561005e565b610bd461024084013561005e565b610be261026084013561005e565b610bf061028084013561005e565b610bfd818486888a6100fd565b90508060005260206000f35b8060408101831015610c1a57600080fd5b92915050565b6000806000806103a08587031215610c3757600080fd5b610c418686610c09565b935060c0850186811115610c5457600080fd5b604086019350610c648782610c09565b925050856103a086011115610c7857600080fd5b5091949093509091610100019056fea164736f6c634300081c000a",
  "linkReferences": {},
  "deployedLinkReferences": {}
}